:1000000000100020A5040000A1040000A1040000CD
:10001000A93B0000A1040000A1040000A10400000D
:10002000A1040000A1040000A1040000A10400003C
:10003000A1040000A1040000A1040000A10400002C
:10004000A1040000F9050400A1040000A1040000BF
:1000500089FD030051060400050604001D06040086
:10006000FD05040091090000650A0000A1040000DC
:1000700071550000A1040000A1040000A1040000CB
:10008000A1040000A1040000890A0000A1040000EE
:10009000A1040000A1040000A1040000A1040000CC
:1000A000A1040000A1040000A1040000A1040000BC
:1000B0005506040001060400A14100008D0604005D
:1000C000A1040000DDF00300A1040000A104000071
:1000D000A1040000A1040000A1040000A10400008C
:1000E000A1040000A1040000A1040000A10400007C
:1000F000A1040000A1040000A1040000A10400006C
:10010000A1040000A1040000A104000010B5054CEA
:10011000237833B9044B13B10448AFF300800123B3
:10012000237010BDD013002000000000B4AB040009
:1001300008B5034B1BB103490348AFF3008008BD6A
:1001400000000000D4130020B4AB0400154B002BBA
:1001500008BF134B9D46A3F5803A00218B460F46FE
:100160001348144A121A43F0F2FA0F4B002B00D036
:1001700098470E4B002B00D0984700200021040028
:100180000D000D48002802D00C48AFF3008043F06A
:1001900039FA2000290000F0BDF843F00DFA00BF45
:1001A0000000080000100020000000000000000017
:1001B000D01300204070002000000000000000006C
:1001C0000CB407B504AB53F8042B019316F0D2FC22
:1001D00003B05DF804EB02B07047000008B51AF0F8
:1001E000CBFC054B186028B9044B054A0548A121F2
:1001F00043F0BCF908BD00BFEC130020F54B040030
:10020000A44B0400FF4B0400014B18681AF09AB885
:10021000EC13002010B5044C20681AF0BCFE2068D6
:10022000BDE8104005F050B9EC13002000B5A1B0B6
:100230006822002106A843F08AFA01220023CDE9B2
:1002400006239DF87D209DF87C3042F001028DF858
:100250007D20264A1892264A43F08103106851688F
:100260008DF87C306B4603C3082269460DF14900C6
:1002700043F049FA9DF87C3043F010038DF87C3050
:10028000002305931B4B029303F1AA4303F5A50337
:1002900003F584731022039302A9174B04930AA851
:1002A00043F031FA9DF87C30144843F004038DF894
:1002B0007C3043F02CFE1028024605D9104B114A21
:1002C0001148FB2143F052F90C490EA843F01BFAE8
:1002D0009DF87C3043F008038DF87C300B4B06A969
:1002E00018681AF0E9FB21B05DF804FB22220F0028
:1002F0009C4B04001234C0DEC0DE1AB50010002092
:10030000D24B0400BA4B0400FF4B0400EC13002056
:10031000FFF78CBF08B503F061FFFFF7F9FF03F0AB
:100320006AFFFFF777FFFAE77047000008B504217E
:10033000112002F015F90121084801F037FE0221D1
:10034000074802F00DF90221064802F009F90221DE
:10035000054802F005F9002008BD00BF30253E0029
:1003600002001E00030020000500240008B5204BF9
:1003700001225A641F4BDB6C1B0E0FD11E491F4814
:100380004AF6E8520A60026842F0040202600B601A
:100390001B4A136843F40053136001E0012BF7D0AC
:1003A000184A136A23F4441343F488131362A2F522
:1003B0008042136843F48073136002F5465224327E
:1003C000136843F4F843136003F0AEFA00F062F8E8
:1003D00003F03EFA03F060FA03F092FAFFF7A6FF8B
:1003E00003F04CFA00F04AF8BDE8084000F05EBBAC
:1003F00000000E40B081E00F90310E4098310E4069
:1004000064310E4000400E4000F028B808B503F0FB
:100410007DFC12F0D7FBBDE8084003F0D5BA08B563
:1004200003F0E8F903F0F2F9BDE8084005F038B848
:1004300008B5FFF7D3FEFFF7E7FE05F045F908BD65
:10044000704770477047704718B1034B1860002021
:1004500070472520704700BFF013002010B5054CF1
:100460000549206800F0EEFF2068BDE81040FFF766
:10047000EBBF00BF301000200C10002008B5012198
:10048000034801F093FDBDE80840FFF74DBF00BFF2
:1004900000350A000121014801F088BD00350A003D
:1004A000FEE7000008B500F069F8064B0649074A68
:1004B0008B4201D3FFF74AFE52F8040F43F8040BB6
:1004C000F6E700BF00100020D0130020B8AB0400F6
:1004D0000048704700F04902104AD2F8943003F007
:1004E0000703023B032B13D8DFE803F00C14020EC2
:1004F0000B4B1B68D2F80001C0F304200130B3FBA2
:10050000F0F07047074BF4E7074B1B685B08F1E717
:10051000054BEEE74FF40043ECE700BF00400E4010
:1005200040110020381100203C11002008B5FFF7D1
:10053000D3FF054BD3F80831C3F308230133B0FBD5
:10054000F3F0024B186008BD00400E40341100204B
:10055000014B1868704700BF38110020054B186028
:10056000054BD3F8943003F00703022B01D1FFF7BA
:10057000DDBF70473811002000400E40044B054A93
:100580009A60D3F8882042F47002C3F8882070473C
:1005900000ED00E0000000004FF4004070474FF411
:1005A0007A707047014B1868704700BF40110020F7
:1005B000054A06491368184488428CBF4FF0FF3340
:1005C00010601846704700BF44110020000004204E
:1005D0002DE9F04F9B46584B85B01B78109F9DF836
:1005E00044A0DDF85080064689461546002B00F0F1
:1005F0009280072A00F291800E9B002B00F08D80E4
:100600000F9B002B00F08980129BB3F5006F00F365
:100610008480012801D1002F7FD0484B03EB0513C4
:100620001B7B002B7BD0464C10220021684643F0F8
:100630008EF804EB45141022B9F1000F5CD1494645
:10064000204643F084F8A37843F01003A370E378C6
:1006500043F03003E370BAF1000F03D1DBB243F093
:100660000303E3703649129BCDF800B06A01013BE9
:10067000885A01EB020C63F30E1088520E9BCCF8E3
:1006800008300F9BCCF804309DF84C109CF80330D8
:10069000012E61F383038CF8033042D11323CCF88D
:1006A0000C309CE80F000CF1100E8EE80F00DCF807
:1006B0001C20CCF814706FF0030161F39F02B9F1B4
:1006C000010FCCF81C2004D10F9BCCF81830CCF8CB
:1006D00004701A492A018B1841F802800027159AE4
:1006E0005A6028469F605E732246694602F0FCFC11
:1006F000384605B0BDE8F08F0021204643F027F8CA
:100700001023A3700323E370BAF1000FAAD1DBB268
:1007100043F03003A5E70B48EBE70B48E9E70B484C
:10072000E7E7B8F1000FD4D19CF8023068F3041366
:100730008CF80230CDE700BF74150020F4130020C0
:1007400074140020028000F0018000F0078000F0A7
:1007500038B5104B1B780546BBB1C0B102F057F855
:100760000D49002301EB0312147B3CB92B600123DC
:100770001373146002F051F8204638BD0133082B82
:10078000F0D102F04AF80548F7E70548F5E70548D3
:10079000F3E700BF74150020F4130020048000F07C
:1007A000028000F0018000F013B5164B186801902C
:1007B00000238DF8043002F02AF8134B1C7824B182
:1007C00002F02BF8114802B010BD01221A7002F09D
:1007D00024F80F4B1C731C7783F82C4083F83C40A3
:1007E00083F84C4083F85C4083F86C4083F87C408D
:1007F00004230DEB03008DF8073002F04BFC20467C
:10080000E1E700BF084C040074150020038000F0ED
:10081000F413002010B588B00E9C07940D9C06942C
:100820009DF8304005940B9C04949DF82840039457
:100830000024CDE9013400920B46024621462046B1
:10084000FFF7C6FE08B010BD10B588B00E9C079427
:100850000D9C06949DF8304005940B9C04949DF8E3
:10086000284003940024CDE9013400920B4602464F
:1008700001212046FFF7ACFE08B010BD08B50A4BB9
:100880001B785BB107280BD8084B03EB00131B7BCD
:1008900043B1002102F0F4FB002008BD0448FCE74E
:1008A0000448FAE70448F8E774150020F413002020
:1008B000028000F0018000F0078000F008B50A4BCC
:1008C0001B785BB107280BD8084B03EB00131B7B8D
:1008D00043B1012102F0D4FB002008BD0448FCE72D
:1008E0000448FAE70448F8E774150020F4130020E0
:1008F000028000F0018000F0078000F00D4B1B78B3
:1009000093B1072812D889B10B4B03EB00131B7B63
:1009100073B10A4B1A6A012303FA00F010401ABFA0
:1009200000200B70087070470548704705487047F5
:100930000548704774150020F413002000200E4075
:10094000028000F0018000F0078000F00B4B1B7864
:1009500010B50C4663B107280CD859B1084B03EB0E
:1009600000131B7B43B102F011FC2060002010BD7E
:100970000448FCE70448FAE70448F8E77415002047
:10098000F4130020028000F0018000F0078000F0E6
:100990002DE9F843174E326EF36E12EA030800D5C4
:1009A000FEE7154CDFF854900127002518EA070FE1
:1009B00016D02368B7669BB1A16862680131A16057
:1009C00028469847637B012B0AD148B909EB4513A8
:1009D000197B1A7F60F3410160F3410219731A77A2
:1009E0000135082D4FEA470704F11004DED1BDE8B8
:1009F000F88300BF00200E40F41300207414002080
:100A000070B5094E0446012504B970BD94FAA4F0EE
:100A1000B0FA80F005FA00F324EA030456F8203017
:100A2000002BF1D09847EFE778150020054B4FF4E5
:100A30008022C3F880211A604FF48062C3F88021BD
:100A40001A60704700E100E038B504460D4601F039
:100A5000DEFE034B43F82450BDE8384001F0DDBE14
:100A600078150020074BD3F82804D3F81C24104035
:100A700020F42A5020F02A004004400CC3F824043B
:100A8000FFF7BEBF00A00040074BD3F82804D3F8FF
:100A90001C24104020F4AA4020F055000004000C53
:100AA000C3F82404FFF7ACBF00A00040024B196854
:100AB000024B18683BF07AB94C1100204811002015
:100AC0007047000070B59400224605460E4602F0BD
:100AD0006FFC431C02D018B1064800E0064870BD08
:100AE00022463146284642F0FFFD0028034808BF51
:100AF0000020F4E724E000F021E000F010E000F036
:100B000013B5044601A802F0DBFC9DF806302380F3
:100B100040F201136380064B5B6B1B0E0A3301220C
:100B200003F01F0302FA03F30020636002B010BD5C
:100B3000B081E00F02F06CBB08B502F059FB002059
:100B400008BD10B5044644EA010313F00303084648
:100B500009D1934201D1002010BD54F8231040F870
:100B600023100133F5E79200214642F0CCFDF2E775
:100B700010B5044602F0D4FB431C02D018B10D4856
:100B800000E00D4810BD0D4B5B6B1B0E0A3303F0EC
:100B90001F020123934023F003032046234498427D
:100BA00001D10020EEE750F8042B0132F7D00448C1
:100BB000E8E700BF24E000F021E000F0B081E00FA2
:100BC0000EE000F008B501F01BFE014B186008BDF7
:100BD000506F0020014B186801F016BE506F0020C6
:100BE0000A460139014402F069BF000038B141B141
:100BF000013AB2F5006F044838BF0020704703483F
:100C000070470148704700BF037000F0027000F0A9
:100C100038B504460D4601F0FAFDA28892B222B919
:100C20002A6001F0FAFD064838BD6388142202FBF1
:100C3000034308332B6001F0F0FD0020F4E700BF10
:100C40000B7000F038B504460D4601F0E0FDA388B6
:100C50009BB223B92B6001F0E0FD0C4838BD6388DE
:100C6000E188142202FB034308332B6063885A1C7B
:100C700092FBF1F301FB13239BB26380A388013B3A
:100C80009BB2A38001F0C9FD0020E7E70B7000F0E4
:100C90007FB5012380F82C3090F83230ABB9426B2D
:100CA0000368013242630C4A0392002204900292CC
:100CB0004A680192012200920A68016980681C3327
:100CC000FFF7C2FD07B05DF804FB012BE7D000235E
:100CD00080F82C30F6E700BF551300007FB50123E4
:100CE00080F82D3090F832309BB902683432436B73
:100CF000013343630E4B03930023049002934B682C
:100D00000193012300930B68C1684068FFF782FDDF
:100D10000BE0012B06D10268136843F4005342F83C
:100D2000283BE4E7002380F82D3007B05DF804FB92
:100D3000350D0000F7B5144601A9906AFFF768FF6A
:100D4000636B013B6363194B984220D0019B0025E4
:100D50001D619D6001F05BFD019AD768064627B1D1
:100D6000D2E9002329462046B84701A9A06AFFF727
:100D700069FFA06A83889BB263B101A9FFF748FFAE
:100D800001992046FFF7AAFF304601F046FD0120F9
:100D900003B0F0BD84F82D3094F83230012B01BF40
:100DA0002268136823F400531360EDE70B7000F022
:100DB000427E30235343044A1A44437F03EBC20369
:100DC0009B001868C0B270471CA0104213B51D4AA2
:100DD000002352F82340617F81420ED00133042B5F
:100DE000F7D102B010BD0028FBD19DF80730002BD1
:100DF000F7D06068FFF742FDF3E794F83130022B3B
:100E0000EFD12046FFF7D4FF637D2075022BE8D198
:100E100094F82E3003F0FF02002BE2D102A96068A3
:100E200001F8012DFFF76AFD237D1BB194F82F30E7
:100E3000002BD8D0002384F82F306068FFF73EFDE8
:100E4000CFE700BFF81B002090F8323053B9036899
:100E50000122DA601A69D007FCD55A6F42F001020C
:100E60005A677047012B0CD103685A6C9107FCD468
:100E700001225A609A68D207FCD55A6D42F00102ED
:100E80005A65704790F832303BB903685A6F22F0C8
:100E900001025A670222DA607047012B09D1036808
:100EA0005A6C9207FCD45A6D22F001025A65022254
:100EB0005A6070470F49104B0A782AB9C3E90022DB
:100EC000C3E9022201220A70002253F82210814253
:100ED00008D00132042AF8D1002153F821201AB990
:100EE00043F821000020704701310429F5D103485F
:100EF000704700BF081C0020F81B0020027000F0A3
:100F000010B50446FFF750FC0021201DFFF720FC20
:100F1000014608B1044810BD04F10800FFF718FCB1
:100F20000028F8D0F6E700BF0E7000F02DE9F04180
:100F300004461746884601F06AFCA388E2889A4274
:100F4000054606D800233B6001F067FC1148BDE868
:100F5000F0812088142606FB0040324641460830C6
:100F600042F0D1FB22882388E18806FB0242083246
:100F70003A605A1C92FBF1F301FB13239BB22380CE
:100F8000A38801339BB22846A38001F046FC0020D1
:100F9000DDE700BF0A7000F073B504460D46C07D62
:100FA000E67E002934D001230422314602F026F8DF
:100FB00001230222217F207E02F020F894F83130B4
:100FC000022B16D100230122617F607E02F016F809
:100FD00000230422A07EA17F02F010F80123627F8B
:100FE000607E01930093114601F0C2FF002002B021
:100FF00070BD032BFAD100230122617F607E01F0D6
:10100000FDFF00230422A17FA07E01F0F7FFEDE7A2
:101010000B460A46314601F0F1FF2B462A46217F56
:10102000207E01F0EBFF94F83130022B10D12B46DB
:101030002A46617F607E01F0E1FF2B462A46A07EB2
:10104000A17F01F0DBFF627F607E01950123C9E78C
:10105000032BCBD12B462A46617F607E01F0CEFF69
:101060002B462A46CFE790F8323013B90368186947
:101070007047012B1CD103689B6803F00200DA075C
:1010800048BF40F00100590748BF40F008001A0768
:1010900048BF40F02000D90648BF40F040009A0603
:1010A00048BF40F080005B0603D540F40050704715
:1010B000002070472DE9F3410546406A8488984630
:1010C000A4B200230E461746CDE900333CB1694671
:1010D000FFF79EFD01A90446A868FFF737FC0099B9
:1010E00071B16CB94868019BC01A3860C8F800300B
:1010F0000B6833602846FFF7B6FF02B0BDE8F08109
:101100000021C8F8001039603160F3E72DE9F041A3
:1011100004460E461746FFF769FD804650BB09207E
:1011200001F08CFB0546A26A93889BB213B194F838
:101130002E3013B394F8322022BB23681D6915F0BA
:10114000020533D0012384F83030002A3FD13744E0
:10115000BE42206836D103699E06FCD555B994F885
:101160003230002B42D123685A6F22F002025A67B4
:101170000822DA604046BDE8F081002DD4D0FFF7A8
:1011800007FCD0E7012A1BD123689D6815F00205F2
:10119000D8D1596C8807FCD4042159609968890713
:1011A000FCD5596D41F002015965CBE70421D960A6
:1011B00019698907FCD5596F41F002015967C1E7E8
:1011C0000025BFE716F8011B02F038FAC0E7012A34
:1011D000D0D13744B742206803D183681907FCD5C2
:1011E000BCE716F8011B01F0F6FFF3E7012BC1D1B4
:1011F00023685A6C9207FCD45A6D22F002025A6599
:1012000008225A60B6E7000010B50446B0B190F865
:101210002E3033B990F83130022B0AD06068FFF7D6
:101220002DFB94F82E300133DBB284F82E300020F1
:1012300010BDFFF7BDFD0028F3D1EFE70048F7E749
:10124000027000F010B50446D0B190F82E30CBB14A
:1012500090F82E30012B06D190F83130022B0AD0B5
:101260006068FFF72BFB94F82E30013BDBB284F86B
:101270002E30002010BDFFF79BFD0028F3D1EFE7D3
:101280000148F7E70148F5E7027000F0057000F04B
:1012900037B590F83150022D044618D1A37F407D18
:1012A00001229A40A37E30215943134B0B4410B9BD
:1012B00003F1806303E0012805D103F1C0631A60E4
:1012C000002003B030BD217D0029F6D1F0E7012DCB
:1012D000F6D1037D73B911238DF80730FFF794FF22
:1012E0002A460DF107012046FFF710FF2046FFF7C1
:1012F000A9FFE5E71323EFE70CA00040F0B587B0A6
:1013000004461646FFF772FC0546F0B9CDE9011612
:1013100004936A460E4B606A039601A90593FFF792
:1013200005FE054688B994F82C3073B92046FFF7BE
:101330008BFD00992046FFF7ABFC94F83130032B6E
:1013400003D025752046FFF7A3FF284607B0F0BD60
:10135000017000F073B5144601A9506AFFF758FCFC
:10136000636B013B6363344B98422FD094F8320097
:10137000019B002836D12268116C11F4007128D02D
:101380002E49196198604FF40073936401F03FFA9D
:101390000199CD68064635B14A688B682046D31A54
:1013A0000A680969A84701A9606AFFF74BFC606AEF
:1013B0008588ADB2002D2FD001A9FFF729FC019936
:1013C0002046FFF765FC304601F027FA012002B005
:1013D00070BD106CC5051BD51948186199604FF494
:1013E0008073D2E7012813D12268D16A11F08001FD
:1013F00006D0124919610021996080235363C5E723
:10140000D06A400604D50E48186199604023F5E77C
:1014100000221A619A60B9E7012323752046FFF77D
:1014200037FF94F8313084F82C50032BCBD0204672
:10143000FFF728FDC7E700BF0B7000F00D7000F04C
:101440000C7000F02DE9F041094F04460D460FCF16
:1014500088B001AE0FC697E8070086E80700002CA9
:1014600000F0C68445B9034E304608B0BDE8F081AF
:10147000404C0400037000F038220021204642F066
:1014800066F9002363632046FFF714FD0646002833
:10149000EAD12B7C84F83130CD4A2B68236093420B
:1014A00084F8320040F07F81CA4B2362CA4BE3606C
:1014B0004FF440232361D5E906230026626216809B
:1014C0005680968084F82C60A3621E805E809E8089
:1014D0006B6803936B89ADF81430AB89ADF81230AB
:1014E000AB7B8DF810300121EB7BBC4884F82D607C
:1014F00084F82F6005278DF816308DF8117000F0F4
:1015000055FD0121B64800F051FD0121206A00F08F
:101510004DFD01A928688DF8046002F057F8D5F850
:1015200000C06A7ADCF878002B7A20F4F85020F0BA
:101530001F00104340EA03200321CCF87800CCF8C8
:1015400074102068DFF888C2604540F06281BB42B9
:1015500040F27A81981F042840F27881A3F10B00B1
:10156000B84240F27581A3F11100062808D9A3F111
:101570001801062940F26E811F2B14BFFF21394646
:10158000042AE17540F26881511F042940F2668106
:10159000A2F10A01052940F26381A2F11001062996
:1015A00040F26081A2F11701072940F25D811F2AF4
:1015B00014BFFF2100212176002B58D0012B56D0DB
:1015C000022B54D0032B52D0042B50D0052B4ED0DD
:1015D000062B00F05381072B00F05281082B00F0FE
:1015E0005181092B00F050810A2B00F04F810B2B09
:1015F00000F05A810C2B00F039810D2B00F038815E
:101600000E2B00F037810F2B00F03681102B00F0ED
:101610003581112B00F02E81122B00F02D81132B20
:1016200000F02C81142B00F02B81152B00F02A8167
:10163000162B00F02981172B00F02881182B00F0C1
:101640002781192B00F026811A2B00F025811B2BF6
:1016500000F024811C2B00F023811D2B00F022813F
:101660001E2B00F021811F2B0CBF0723FF23E376E5
:10167000002A00F0A983012A00F0A883022A00F0C2
:101680009183032A00F09083042A00F08F83052AB7
:1016900000F08E83062A00F08D83072A00F08C83E9
:1016A000082A00F08B83092A00F08A830A2A00F0B6
:1016B0006F830B2A00F06E830C2A00F06D830D2AD5
:1016C00000F06C830E2A00F06B830F2A00F0708309
:1016D000102A00F06383112A00F06283122A00F0BE
:1016E0006783132A00F06683142A00F06583152AA5
:1016F00000F06483162A00F06383172A00F06283E7
:10170000182A00F06183192A00F060831A2A00F079
:1017100049831B2A00F048831C2A00F047831D2AB6
:1017200000F036831E2A00F035831F2A14BFFF23E2
:10173000002323776B7C6376AB7C6377EB7CA376AB
:101740002B7DA37701212046FFF726FC06460028C3
:101750007FF48AAE01F05BF82F7C032F804640F0C7
:1017600037832B682A8CDA675A6E42F004025A6675
:101770005A6F42F030025A6728684FF0FF33836493
:101780002B7C032B0CBF0521042101F0E5FE2B6807
:101790004FF44062DA602046FFF7B2FB064640464F
:1017A00001F03BF860E60F4A934206D10E4B2362EC
:1017B0000E4BE3604FF450237CE60D4A93421DD15B
:1017C0000C4B23620C4BE3604FF4602372E600BFC6
:1017D000000001400042040001000C0040410500EF
:1017E00000350A00000401400052040001000D0011
:1017F000000801400062040001000E00C54A934247
:101800007FF431AEC44B2362C44BE3604FF47023CA
:1018100050E6DFF80CC3604548D1052B14D9981F5A
:10182000042813D9A3F10B00052811D9A3F1110045
:1018300006287FF6A5AEA3F1180106290AD91F2BA9
:1018400014BFFF2105219BE6314699E6012197E669
:10185000022195E6394693E60021ACE60121AAE68D
:101860000221A8E60321A6E60521A4E60723FEE659
:101870000823FCE60923FAE60A23F8E60B23F6E63A
:101880000C23F4E60D23F2E60E23F0E60F23EEE63A
:101890000023ECE60123EAE60223E8E60323E6E67A
:1018A0000423E4E60523E2E60623E0E6DFF874C25B
:1018B000604540F03981042B40F2F880591F03291C
:1018C00040F2F680A3F10901042940F2F380A3F16C
:1018D0000E010E2940F2F080A3F11D01012940F212
:1018E000ED801F2B14BFFF210A21032AE17540F26E
:1018F000E780111F032940F2E580A2F108010429C5
:1019000040F2E280A2F10D010E2940F2DF80A2F147
:101910001C01022940F2DC801F2A14BFFF21002194
:101920002176002B00F0DC80012B00F0DB80022B05
:1019300000F0DA80032B00F0D980042B00F0D8806F
:10194000052B00F0E380062B00F0E280072B00F06F
:10195000C180082B00F0C080092B00F0C3800A2B47
:1019600000F0C2800B2B00F0C1800C2B00F0C08077
:101970000D2B00F0BF800E2B00F0C8800F2B00F065
:10198000C780102B00F0A880112B00F0A780122B2D
:1019900000F0A680132B00F0A580142B00F0A4808B
:1019A000152B00F0A380162B00F0A280172B00F05F
:1019B000A180182B00F0A080192B00F09F801A2B1B
:1019C00000F09E801B2B00F09D801C2B00F09C8063
:1019D0001D2B00F09B801E2B00F09A801F2B0CBF4C
:1019E0000223FF23E376002A00F0D281012A00F0CF
:1019F000D181022A00F0D081032A00F0CF81042A8D
:101A000000F0E081052A00F0DF81062A00F0DE8187
:101A1000072A00F0C781082A00F0BA81092A00F0DD
:101A2000B9810A2A00F0B8810B2A00F0B7810C2A8C
:101A300000F0B6810D2A00F0C5810E2A00F0C481A5
:101A40000F2A00F0AF81102A00F0AE81112A00F0B9
:101A5000AD81122A00F09C81132A00F09B81142A88
:101A600000F09A81152A00F09981162A00F09881D9
:101A7000172A00F09D81182A00F09C81192A00F095
:101A80009B811A2A00F09A811B2A00F099811C2A56
:101A900000F098811D2A00F097811E2A00F096819F
:101AA0001F2A08BF052318BFFF2342E631461CE763
:101AB00008211AE7012118E7394616E70A2114E739
:101AC00000212DE708212BE7012129E7052127E740
:101AD0000A2125E7022385E7032383E7042381E71F
:101AE00005237FE706237DE707237BE7082379E7C4
:101AF000092377E70A2375E70B2373E70C2371E7C4
:101B00000D236FE70E236DE70F236BE7002369E7D3
:101B1000012367E7000C01400072040001000F0080
:101B20000004014000080140B34EB0427FF49BAC7A
:101B3000072B21D9A3F10801012940F2EF80A3F17D
:101B40000A01052940F2EC80A3F11001012940F2BD
:101B5000E980A3F11201052940F2E680A3F1180102
:101B6000042940F2E380A3F11D01012940F2E08045
:101B70001F2B14BFFF210A21062AE17540F2DA80EB
:101B8000D11F012940F2D880A2F10901052940F2B4
:101B9000D580A2F10F01012940F2D280A2F11101FA
:101BA000052940F2CF80A2F11701042940F2CC8030
:101BB000A2F11C01022940F2C9801F2A14BFFF2193
:101BC00003212176002B00F0C780012B00F0C68096
:101BD000022B00F0C580032B00F0CC80042B00F01A
:101BE000CB80052B00F0CA80062B00F0C980072BA4
:101BF00000F0C880082B00F0B580092B00F0B480FD
:101C00000A2B00F0A5800B2B00F0A4800C2B00F019
:101C1000A3800D2B00F0A2800E2B00F0A1800F2BD3
:101C200000F0A880102B00F0AB80112B00F0AA80F0
:101C3000122B00F0A980132B00F0A880142B00F0C9
:101C40009180152B00F09080162B00F08F80172BC1
:101C500000F08E80182B00F08D80192B00F08C8006
:101C60001A2B00F08B801B2B00F08A801C2B00F0BD
:101C700089801D2B00F088801E2B00F087801F2B91
:101C80000CBF0223FF23E376002A00F08780012A9D
:101C900000F08680022A00F08B80032A00F08A8000
:101CA000042A00F08980052A00F08880062A00F0C6
:101CB0008780072A00F08A80082A73D0092A67D013
:101CC0000A2A67D00B2A67D00C2A67D00D2A67D062
:101CD0000E2A6DD00F2A71D0102A71D0112A71D01E
:101CE000122A71D0132A71D0142A5BD0152A5BD026
:101CF000162A5BD0172A5BD0182A5BD0192A5BD032
:101D00001A2A5BD01B2A5BD01C2A5BD01D2A5BD011
:101D10001E2A5BD01F2A08BF0823C4E608212BE730
:101D2000012129E7092127E7022125E7052123E7EA
:101D30000A2121E7032144E7082142E7012140E786
:101D400009213EE702213CE705213AE70A2138E76D
:101D5000062398E7072396E7082394E7092392E7E9
:101D60000A2390E702238EE703238CE704238AE704
:101D7000052388E70B2386E70C2384E70D2382E7FE
:101D80000E2380E70F237EE700237CE701237AE719
:101D90000623CEE40723CCE40823CAE40923C8E4DD
:101DA0000A23C6E40323C4E40423C2E40523C0E4F5
:101DB0000B23BEE40C23BCE40D23BAE40E23B8E4E9
:101DC0000F23B6E40023B4E40123B2E40223B0E419
:101DD000022F7FF4D1AC607F0849FEF735FEFEF795
:101DE00025FEA675267567752046FFF751FAC3E4F0
:101DF000034EFFF739BB00BF000C0140CD0D0000C2
:101E0000027000F0F0B587B004461646FEF7EEFE0D
:101E1000054600BBCDE9011604936A460F4BA06A44
:101E2000039601A90593FFF781F8054698B994F840
:101E30002D3083B900F0EBFCA36A9B889BB2064669
:101E400033B100992046FEF749FF012384F8303072
:101E5000304600F0E2FC284607B0F0BD017000F00B
:101E60000C4B984210D90C4B984210D902220123F6
:101E70000A490B600A49D1F8003123F0807343EA24
:101E80000263C1F80031704700221346F0E70122D7
:101E9000FBE700BF0048E8010090D0034000C843C2
:101EA00000400E400E4B30B50E4C5B68C9B20023AB
:101EB00004EBC30215798D4203D154F833508542A7
:101EC0000BD20133052BF3D1032205494B6823F0D4
:101ED000407343EA02634B6030BD5279F5E700BFBF
:101EE00000000E406C4C040038B5074C41F67133CD
:101EF000256C2364FEF7ECFA0021FFF7D3FF0DB148
:101F00000023236438BD00BF00000E40044B1B6853
:101F10005B0603D4034A1368002BFCD1704700BF53
:101F20003C300E40C800C64308B5FFF7EFFF024B38
:101F30005868C0F3014008BD00300E40044BD3F890
:101F40004421D20703D4D3F840211042FBD170477B
:101F500000400E400C4AD2F89030516A0B4B21F0F1
:101F6000300141F0100110B55162146BC0F3C31180
:101F700003310F2903EA040328BF0F21034343EA77
:101F80000173136310BD00BF00400E4000F8FF0F47
:101F900038B5054C41F67133256C2364FFF782FF99
:101FA0000DB10023236438BD00000E40C0F30322AE
:101FB000013A38B50546092A13D8DFE802F02313A1
:101FC0001212051619121C20104C0020C5F30435FE
:101FD00008B1FFF7B3FF04F1047405EBC404A400D7
:101FE000216038BD00200A4CF0E70120094CEDE7E4
:101FF0001020094CEAE74FF48030084CE6E7002057
:10200000074CE3E70020074CE0E700BFB0400E407C
:10201000C0400E40E0400E40E8400E40F0400E4010
:1020200050410E4000400E40C0F30313013B092B0A
:102030002AD8DFE803F0050B0F1929291F23374B96
:10204000274BD3F80001C0F304207047244BD3F88A
:102050001401F8E7224BD3F80001C0F30060431CE1
:1020600001209840013870471D4BD3F80C01C0F394
:10207000082070471A4BD3F80801F8E7194B98422B
:1020800004D0194B984207D000207047144BD3F866
:10209000203103F00F03E3E7114BD3F82031C3F3F2
:1020A0000113DDE7114B98420CD003F5B01303F593
:1020B00080539842E8D10A4BD3F82801C0F301209D
:1020C000031DCDE7064BD3F82831E8E7084B9842CB
:1020D000DAD1034BD3F8300100F00300704700BFA2
:1020E00000400E408006160080162E0090171A0041
:1020F000A009140008B5FFF797FF013008BD0000E4
:1021000000F00F000138072848D8DFE800F0040F7E
:102110001947232D4735244BD3F8943003F0070398
:10212000023B052B3CD8214AD05C70471E4BD3F8AC
:10213000803003F00703013B032B33D81C4AF3E73D
:10214000194BD3F8843003F00703013B032B29D844
:10215000184AE9E7144BD3F8883003F00703013B32
:10216000032B1FD8144ADFE70F4B1B6F13F0010F2F
:1021700014BF0920072070470B4BD3F85C3103F0E4
:102180003003202B06D0302B06D0102B0CBF07209D
:1021900001207047042070470820704700207047D6
:1021A000052070470120704700400E405C4C040041
:1021B000624C0400664C0400624C040008B5014601
:1021C000FFF79EFF1B4B994211D01B4B994212D037
:1021D0001A4B994204D11A4BD3F8800000F0070043
:1021E0000138032824D8DFE800F00A0E1612144B39
:1021F000D3F88400F2E7124BD3F88800EEE7BDE88D
:102200000840FEF7C9B9BDE80840FEF7CBB9BDE804
:102210000840FEF7C4B9FEF75FF9094BD3F8003167
:10222000C3F300635A1C01239340B0FBF3F008BDD5
:102230000020FCE7030020000500240002001E002F
:1022400000400E4000F47813B3F5B01F10B50446FB
:102250007DD029D8B3F5202F07D00AD8B3F5003F99
:1022600062D0B3F5802F54D05BB9BDE81040FEF7C3
:1022700033B9B3F5602F00F0838004D8B3F5402F55
:1022800058D0002010BDB3F5801F00F09080B3F54A
:10229000A01FF6D14C48FFF791FF4C4BD3F83031DB
:1022A00003F00303D840EDE7B3F5101F66D011D853
:1022B000B3F5F01F46D0B3F5001F53D0B3F5D01FD0
:1022C000DFD14348FFF77AFF404BD3F82821C2F310
:1022D000011244E0B3F5401F46D00BD8B3F5381FC8
:1022E000CFD13C48FFF76AFF384BD3F82031C3F316
:1022F0000113D7E7B3F5481F4BD0B3F5781FC0D112
:10230000FEF7EAF801462046FFF7F4FEB1FBF0F0D5
:10231000B8E7FEF7E1F82D4BD3F80C31C3F30823EF
:102320000133B0FBF3F0ADE7FEF7D6F8274BD3F857
:102330000831F3E7FEF7D0F8244BD3F81431C3F398
:102340000423EDE72348BDE81040FFF737BF2148DD
:10235000FFF734FF1D4BD3F8202102F00F020123B9
:102360009340DEE71A48EEE71948FFF727FF174BBF
:10237000D3F82831C3F301231A1DF0E71248E2E72E
:102380001548FFF7BDFE072811D009287FF479AF63
:102390006BE71248FFF7B4FE072808D0082809D0D9
:1023A00004287FF46EAFBDE81040FEF7D1B80C4BA7
:1023B000186867E7FEF790F8044BD3F80031C3F3D1
:1023C000042303FB00005DE70500240000400E40ED
:1023D0000300200002001E0006000E00B8003200BC
:1023E0006C110020014B1880704700BF7011002055
:1023F0000E4B5A6A12F0300F04D0202913D0302926
:1024000000D011B94FF4400200E0094AD3F890100F
:1024100032EA0101FAD1520246BFD3F8A000C0F35C
:102420008020012070474FF40002EFE700400E408B
:10243000FF33E10702280AD129B1064B4FF480602F
:10244000C3F8A800596612B10220FFF7D1BF0120DE
:10245000704700BF00400E40F8B5042850D8DFE8B0
:1024600000F00A03116F740080264024062307251C
:10247000002951D048E04FF400764FF480740823CF
:102480000925F5E7002944D0324C636A13F0300F78
:1024900037D1314BDB6B636ADB0705D5636A23F009
:1024A000300343F010036362042402230325294E02
:1024B00034662A4E33449B001F68002FFCD0FAB1CB
:1024C0003544AD002B68002BFCD0022818D1B9B1DF
:1024D000204E716A11F0010118D001222021FFF76E
:1024E000A9FFD6F89C70012200210220FFF7B4FF5B
:1024F000C7F30A00FFF72EFD34662B68002BFCD0D3
:10250000F8BD0424022303250021D0E7FFF770FF64
:10251000E7E70826022303250E4901200E6600FA8C
:1025200003F3D1F890001842FBD1002AE8D0012330
:10253000084A03FA05F5D2F890302B42FBD1DFE7C9
:10254000012402260023254692E720261024042396
:1025500005258DE700400E4000300E408004F2104B
:10256000112870B506460C4626D1042912D1FDF774
:10257000EFFF0546A8B10021284600F0A1FA06F0B9
:102580000F06013E072E6FD8DFE806F023186A6EAB
:1025900068886E93052904D1614B1D68614B9D428B
:1025A000E9D8023C0A2C5FD8DFE804F01E4E404711
:1025B0005E5E5E5E5E52B5000025E0E75A4D013C6E
:1025C000092C51D8DFE804F068515850505F505042
:1025D000504E023C0A2C47D8DFE804F00737293078
:1025E00046464646463B3E00002500200424012284
:1025F0001146FFF731FFFFF777FC0DB1FFF786FCBF
:102600004A4B5C67FDF792FF0446FDF765FFFFF755
:1026100027FCFFF789FC01462046FFF7B9FC1DBBEC
:1026200028460121BDE8704000F04ABA0025404824
:10263000FFF716FC02200446D9E700253C48FFF7C7
:102640000FFC01240320D2E7002501200324CEE75C
:10265000002503200524CAE70724CCE7354DAEE763
:10266000354DACE704232B6070BD012211460020DC
:10267000FFF7F2FE0223F6E7012211461046FFF7AC
:10268000EBFE0123EFE7FDF727FFFFF7E9FB2B4BFD
:1026900001221A600323E6E70023E4E7072C04D0B5
:1026A000092CE1D1214B012201E0204B00221A67C5
:1026B000DAE7013C072CD7D801A353F824F000BF78
:1026C0001327000069260000692600000527000086
:1026D0006926000069260000F7260000E1260000B8
:1026E00003221249D1F85C3123F0300343EA02138C
:1026F000C1F85C31B8E7012211460420FFF7ACFEB7
:102700000122EEE7012211460220FFF7A5FE022278
:10271000E7E70022E5E7FFF7E7FB002507246FE77F
:102720003C110020002D310180400E4000400E4041
:102730000148E80188400E4084400E400816C84316
:1027400010B504461120FFF7DBFC01220021022016
:10275000FFF782FE174A217C536A23F00103022906
:1027600008BF43F001035362134B21781960637A69
:10277000A18843EAC123D362136BA07A217A03F0C4
:102780007F630343E08843EAC02343EAC113033174
:102790000F2928BF0F2143EA01731363A37B617BD9
:1027A0001B0143EA0133E17B0B43217B43EA0143F5
:1027B000536310BD00400E40A004C843014638B525
:1027C0001120FFF79DFC0C4D0C4BAA6B0C781340AD
:1027D0001C434B7844EAC3248B7844EA0364CB78E7
:1027E00044EA0324AB6BA34205D000210122084632
:1027F000FFF732FEAC6338BD00400E4080E4FFF8C6
:10280000EFF3108072B6704700B962B67047EFF30D
:102810001180602383F31188704780F3118870471B
:102820004109054A00F01F0352F82100D840C04377
:1028300000F00100704700BF00E100E010B5044661
:10284000EFF31083DB0733D4FFF7EAFF00282ED124
:10285000002CA7BF04F1604404F5614404F00F04A8
:10286000144BACBF94F800231A5D5209EFF31183A7
:1028700013B1B2EB531F1BD20F4C6368C3F30803B1
:10288000ABB1103BDBB259B20029B5BF03F00F0367
:1028900001F16043043B03F56143B6BF1B1993F894
:1028A0000003187E4009824234BF0020012010BD81
:1028B0000120FCE714ED00E000ED00E00E2910B56A
:1028C00043680DD801228A4047F2E004224223F0F7
:1028D0001F0306D140F61F74224201D01943416004
:1028E00010BD41F01001F9E770B5066A056A046A87
:1028F000036A102AC1E90065C1E9024307D1056AEC
:10290000046A026A036AC1E90454C1E9062370BD7E
:1029100030B58B0789B00C4615460CD06946FFF7D9
:10292000E3FF082D0CBF102220226946204640F00C
:10293000EAFE09B030BD00910099FFF7D5FFF8E736
:10294000034B186880F04000C0F38010704700BF50
:102950003C300E4042EA032340F2011293422BD056
:10296000B3F5817F08D2012B1DD030D3B3F5807F22
:1029700031D0002213461CE040F20122934222D0C3
:1029800006D8B3F5007FF4D1174BD3F870310DE0C2
:10299000B3F5407F23D040F201329342E9D1124B8C
:1029A000D3F878310BE0104BD3F87431C3F307221E
:1029B000DBB203600A6070470B4BD3F874311A0E18
:1029C000C3F30743F5E7084BD3F87831EEE7064B3E
:1029D000D3F86C31EAE7044BD3F86C31EFE7024BE4
:1029E000D3F87031EBE700BFB081E00F08B5FFF717
:1029F000A7FF18B1024A1368002BFCD108BD00BF25
:102A0000C800C643154B0228D3F8803113D00328E1
:102A100014D0012814BFDBB2C3F307231B0323F434
:102A20007042B1B9BAB90E49CA6E22F4704213436A
:102A3000CB6601207047C3F30743EFE71B0EEDE7BA
:102A40000749D1F8EC2022F470421343C1F8EC306E
:102A5000EFE7002AF4D00020704700BFB081E00FFC
:102A600000300E4070B504460E46FFF769FF10B304
:102A7000FFF7BCFF104B5B68C3F301439C421AD0C5
:102A80000E4BD3F80031FDF727FD022C054602D18D
:102A90002146FFF77DFAC4F1020210239340064A53
:102AA00013610EB1FFF7A2FF2CB921462846BDE8FD
:102AB0007040FFF76DBA70BD00300E4000400E4010
:102AC00038B502460D46FFF73BFFB8B142B90C4B93
:102AD000D3F80041FDF700FDC4F3042202FB00021D
:102AE000084B1B7829463BB1074B9A4204D8022079
:102AF000BDE83840FFF7B6BF0020F9E738BD00BF9A
:102B000000400E40101C0020002D31010378134AB4
:102B1000002B437870B514BF04260026002B837861
:102B2000946914BF02250025002B037924F03F048B
:102B300043EA0403C47814BF08210021012C08BF14
:102B400043F0010333432B430B43936113684179F3
:102B500023F4403343EA0143136070BD00300E405C
:102B6000224B4AF6E85210B5596B5A639A6FD40754
:102B7000FCD41B6C13F003031EBF1D4A0124146018
:102B8000834203D108B91A4B186010BD032B17D02C
:102B9000B3B1164A1446936FDB07FCD4136C23F0D1
:102BA000030303431364A36F13F00103FBD100304D
:102BB0000F4A18BF01200129106008BF6363E4E7D2
:102BC000431E012BE5D8094B4FF40022DA629A6FBD
:102BD000D207FCD41A6C22F0030242F001021A64FC
:102BE000024A536A1C03FCD5D3E700BF00300E40F5
:102BF000B40AC6432DE9F04F002389B0CDE9023372
:102C0000CDE90433CDE90633A0F5E163B3F5966F62
:102C100005460191934603D9002009B0BDE8F08F25
:102C20004D4BB0F5E16F8CBF4FF0010A4FF0000A39
:102C3000D3F8683100F083801A0EC3F3074307927C
:102C400004934FF496694FF4E164DFF81081D8F8EB
:102C50004C70C7F301773B46524605A902A8FFF71F
:102C600079FED8F8EC60C6F301263346524606A931
:102C700003A8FFF76FFE0798049A2C1B811A614383
:102C8000B1FBF9F3D1182CBF012300238842C3D331
:102C9000002BC1D1069A0398131A6343B3FBF9F3CF
:102CA00010EB030A2CBF012300235245B4D3002BA1
:102CB000B2D1059B029A981A4443B4FBF9F912EB7E
:102CC00009092CBF012000204B45A5D30028A3D122
:102CD000BBF1000F0ED0D8F85C3023F4FE4323F094
:102CE0000203B5F5E16F43EA012318BF0220034355
:102CF000C8F85C30019B63B300213846FFF782FEC1
:102D0000002889D001213046FFF77CFE002883D0BF
:102D1000124A536ED14538BFD14623F4FF73B9F13F
:102D2000E70F23F0010328BF4FF0E709B5F5E16F86
:102D300018BF43F0010343EA490353666DE7C3F349
:102D40000722DBB2079204934FF416794FF496648E
:102D50007BE7012061E700BFB081E00F00300E404B
:102D6000304B1A6FD96CC90702F0070242D5012A0D
:102D700040D9132851D9143813288CBF10230823A5
:102D80002849013BCA6C180322F47F4240EA03231E
:102D90001343CB64244BCA6C1B88C2F30322283331
:102DA000013202EB820003EB5303B3FBF0F3C86C78
:102DB000013B072B20F0EE6028BF072340F4801072
:102DC00040EA0363CB64194BB3F90030002B10DBEE
:102DD0002833500800EB420203EB5303B3FBF2F33A
:102DE0000A6D072B28BF072322F0700242EA031363
:102DF0000B657047DB6CD90706D4012A04D8092873
:102E00000BD90A380928B8E7064BDB6C13F001032D
:102E1000B6D0012A03D82728AFE70423B0E7002360
:102E2000AEE700BF00300E400C1C00200E1C00203E
:102E3000054A064B1B68136F23F007031843044B26
:102E400010671888FFF78CBF00300E408009C6431A
:102E50000A1C0020364B022270B59A639B6B03F06C
:102E60000F039342044602D00025284670BDC18856
:102E70008588B0F90C604A294ED9B1F5FA7F4DD357
:102E800040F6C313994294BF4FF000514FF04051A8
:102E90002748C36C23F0405323F00103002EA8BF42
:102EA00043F001030B43C364D0F8EC3043F44073A8
:102EB000C0F8EC301F4B1D80C36E43F08073C366B7
:102EC0001D4B186800B10420FFF7B2FF1B4B21898E
:102ED00019801B4BB4F90C20A0881A80FFF740FF23
:102EE000A37BF3B1012B20D0012211466088FFF7AC
:102EF00081FE05460028B7D00D4A6078D36B43F4B5
:102F00008063D363FFF72CFEA37AA3F12002534220
:102F100053410C4A1360A8E70021B9E74FF08051F4
:102F2000B6E7034B084A9A65DEE7014B074AFAE722
:102F300000300E400A1C00208009C6430C1C0020F3
:102F40000E1C00209407C64377402057372110B746
:102F500070B505460E461446FFF752FC2A685440E9
:102F600004EA060151402960BDE87040FFF74CBCFF
:102F7000072AF8B501F0030615461F464FF00F016A
:102F800020D8940000FA04F2A1401648FFF7E0FFB1
:102F90000321154806FA04F2A140FFF7D9FF134BAD
:102FA0009DF818202B449B001F60C3F8802001224D
:102FB00002FA05F50E4AC2F824549DF81C20C3F805
:102FC0000023F8BDA2F10804A40000FA04F2A14015
:102FD0000848FFF7BDFF032106FA04F2A1400648A6
:102FE000DBE700BF00A4004008A40040802085105B
:102FF00000A0004004A400400CA40040F0B54AB179
:1030000030261E4C012546438D4034440BB304F159
:10301000C06425603024444304F18044072904F54A
:10302000204419D865688E000F27B74025EA0705A8
:1030300002FA06F63543656052B9012202FA01F13F
:10304000302250430D4A0244A3B102F1C062116024
:10305000F0BD04F18064DCE701F18045083DA6681D
:10306000AD000F27AF4026EA070602FA05F5354303
:10307000A560E1E702F18062E9E700BF0CA0004033
:10308000034B03449B0081F001011960704700BFAE
:10309000A001F11010B5044601214FF4AA40FEF73B
:1030A00085FFB4F8013022785BBA9BB243EA026331
:1030B0000B4A136000231362D36253634FF0004343
:1030C000D3664FF0FF339366064A4FF40071C2F89F
:1030D0008011E3785B01DBB282F80933116010BD27
:1030E00000200E4000E100E02DE9F041254D91F86F
:1030F0000BE091F80AC00F7B0C464FF03008C3B2CA
:10310000012608FB00509E402368497BC0F88030B0
:103110004FEA0E5343EA0C4343EA475322F00302BB
:10312000C0F88810C0F88430C0F89820AE66FFF769
:103130006EFBEB6E3343EB66237A13B16B6B334359
:103140006B63637A13B1EB6A3343EB6222792B68CA
:1031500022B1D243120262F47F42134062790AB173
:1031600043EA0223A2790AB123EA0203E27902B117
:103170001343044A1360044B1E60D663BDE8F0415C
:10318000FFF74BBB00200E4028200E44F8B5C3B219
:1031900001259D400446FFF73AFB0A4B30221E6E84
:1031A0009F6A02FB0434D4F88C40FFF736FB3D42A3
:1031B00006D1C4F30A1008B9354200D10130F8BD78
:1031C0000020FCE700200E40036CDB0702D4436CB8
:1031D0000B42FCD1704710B502460C469368DB06E3
:1031E000FCD540211046FFF7EFFF946210BD0000B0
:1031F000054B5A685B68054B41F671321A649A6850
:1032000022F001029A60704700300E4000000E402C
:10321000034B9A6822F001029A6000221A647047F8
:1032200000000E40094A0A4BD969C90705D512B9F1
:103230006FF002007047013AF6E7002AF8D0012249
:103240001861DA60D86940F3800070478096980072
:1032500000000E4070B509B9002070BD0E4A002371
:10326000082550F8234094610C4CD5600133D66991
:10327000F60705D514B96FF00200EEE7013CF6E75A
:10328000002CF8D0D469A40702D49942E9D1E3E72D
:103290006FF00100E1E700BF00000E40809698004B
:1032A0002DE9F8431C4B884641F671311D6C1964B9
:1032B0001A49074648684968996841F00101ADB26A
:1032C000996096084FF00009B14501D3002005E050
:1032D00007EB89042046FFF7A5FF48B10E4B9A681B
:1032E00022F001029A600DB100221A64BDE8F88351
:1032F000C4F30A04C4F50064A408A6EB09039C42C5
:1033000028BF1C4621464046FFF7A4FF0028E5D110
:10331000A14408EB8408D7E700000E4000300E40BF
:10332000204B41F671311A6C10B519641E494C6876
:103330004968996841F00101996001211861D960DB
:10334000D9694C0792B209D5996821F001019960B9
:103350000AB100221A644FF0FF301FE00221134C23
:10336000D9601946D869C00700D56CB9C8698B689F
:1033700010F0020023F001038B6007D00AB1002394
:103380000B646FF0010009E0013CEBE724B902B1E6
:103390000C646FF0020001E00AB1086410BD104631
:1033A000FCE700BF00000E4000300E408096980001
:1033B000FFF776BF014B01229A60704700500E4024
:1033C000124BF0B55C68124D124E00231846376858
:1033D000EA187F0751685A5908D4B2F5806F03D0B4
:1033E0000DD8B2F5007F01D141F48071144202D0B2
:1033F000214208BF10430833482BE8D1F0BDB2F595
:10340000006FF1D0B2F5803FEDE700BF00500E40F5
:10341000944C0400E841E00F8B784A789B0143EA22
:1034200082030A781343CA7843EA02130A7943EA0B
:10343000C2234A7943EA02338A79043043EA424399
:103440000001014A1350704700200440014B1860EE
:10345000704700BF00008442427801790378002A57
:10346000827870B514BF04260026002AC27814BFE3
:1034700010250025002A42794FEA023242EA012251
:1034800042EA0302837914BF20240024002BC3796D
:1034900042EA034343EA0603027A43EA050314BF00
:1034A0004FF4004100212343002A14BF4FF400329F
:1034B00000220B431343014A136070BD00200440F7
:1034C0000B4A536911699B0003F03C03C1F381115E
:1034D0000B438370136903F03F0343709369D26910
:1034E00003F0F003C2F3031213430370704700BFED
:1034F000D0FF0FE070B5054616461C4619B91448B2
:10350000FEF7A0FE0146202C08D001D8ECB170BD1A
:10351000402C18D0602CFAD1042200E0082206FBCF
:1035200002F35A0802EB4112B2FBF3F2094B203AC4
:1035300003EAC2022B6823F060032B602B681C4354
:103540002C606A61E3E70622E9E71022E7E700BFA3
:1035500040410500F8FF7F00CB435B0003F00A0306
:10356000C360C1607047000040F6AA63C36041F2C7
:103570000502002303604260104A83604361C36414
:103580008264036643678367C3670D4B0D4A9842A5
:1035900009D0904207D003F50063984203D003F5A9
:1035A0008063984201D10023036500239042836524
:1035B00002D0054A904200D1C3657047F9FF01006F
:1035C0000000014000040140000C014038B50546F0
:1035D0000C46FFF7C9FF8B7C1BB1036843F08043A7
:1035E0000360E37C1BB1237D43F08003AB65228A3B
:1035F000637B1343E28913436B60D4E90112237B9D
:103600002846FFF777FF637D1BB12B6843F48033B7
:103610002B60A37DE27D1B07120502F4E00203F09C
:10362000E04313432B666B6F23F030036B676A6FC5
:10363000237E13436B672378EB6038BD03695B0619
:10364000FCD541637047000038B5044639F0C7FB2C
:103650000FCC044D0FC594E80F0085E80F00002043
:1036600038BD00BF141C002047F6FF739A42F0B526
:1036700060D0022960D8314BCE00981913F8311070
:103680008578012DB8BF0125012919460DD1C378D0
:103690005B1B23B1416831F91310914202DC5819C8
:1036A000C0B2F0BD013B1BB2F3E740680028F8D080
:1036B000B0F90030934204DBB0F902309342B8BF56
:1036C00013468288FF2A03BFB0F90640B0F908709C
:1036D000012200221CBFC8242827E41A94FBF7F417
:1036E00014448A1924B25678721EA242A8BF2246F8
:1036F0004FF47A7700EBC2010132CC88896812B2AC
:1037000013FB041121EAE171B24201F5FA71B1FB38
:10371000F7F104DA00EBC204A4888C42EAD200EB91
:10372000C20232F8040C884228BF0846A84238BFBB
:103730002846B5E7FF20B4E70020B2E7141C0020BC
:103740000229F0B54CD8284810F83130012B11D19E
:1037500000EBC1018878CB780128B8BF01209342E3
:1037600094BFC0EB0300C0EB0200C0B24B6833F95A
:103770001000F0BD92B300EBC1014B6883B3B3F905
:1037800002008242F5DDCD78B3F90040954229D997
:103790001D1D4B78013BDBB2002197B2CEB2B34284
:1037A0004FEAC10606D905EB060C0131BCF808C08A
:1037B000BC45F3D2A9194FF47A7353434A68B1F95F
:1037C00002509B1A022295FBF2F2134493FBF5F38D
:1037D0009C4207DB9842CCDC18B2CAE70348C8E732
:1037E0000348C6E72046C4E7141C00200CFEFFFF78
:1037F0000080FFFF08B50448FFF726FF0120BDE861
:10380000084039F033BB00BFDC4C04007FB5142204
:10381000002101A83FF09BFF02238DF804300B4BE1
:1038200002934FF48373ADF80C300C22ADF81230D4
:1038300001A90D234FF0FF308DF80E208DF81430C4
:1038400039F0DAFB07B05DF804FB00BF006A18002E
:103850007FB5094B6A4603F110061546186859688A
:10386000144603C40833B3422246F7D12846FFF773
:10387000F1FA002004B070BD944D040013B502238A
:1038800000246846ADF8044000948DF80530FFF739
:103890003DF9204602B010BD70B5154B86B001AAA7
:1038A00003F11006154618685968144603C4083316
:1038B000B3422246F7D11B8823800E4B5A6812036D
:1038C0000DD49B68C3F308030B48ADF80A30FCF72E
:1038D00045FE2846FEF734FF002006B070BD074BBA
:1038E0001B884FF6FF72934208BF4FF4A673EBE7B5
:1038F000A44D0400B081E00F00F049020001E00F88
:1039000007B5084B18680190202301A88DF80430F2
:10391000FEF754FF6420FEF765FD002003B05DF85C
:1039200004FB00BFB64D040010B50C480C4C6FF002
:103930000402A02112F0800FD3B21BBF03F00F03CB
:10394000043BA3181B1802F101020CBF83F80013FB
:103950001976332AEED1002010BD00BF00ED00E043
:1039600000E100E0BFF34F8FBFF36F8F054A536A4A
:1039700023F480335362D2F8943023F00103C2F869
:103980009430704700ED00E0013A42EA520242EA08
:10399000920242EA121242EA122230B542EA12427E
:1039A0000132B2F5807F38BF4FF480725442044038
:1039B00015198D4205D31C60039B1D60049B1A6082
:1039C00030BD5200F2E700002DE9F043354E364C91
:1039D000DFF8E080DFF8E090002387B0CDE9033323
:1039E000FFF7C0FF3568A5604FF00053E3606F1C20
:1039F0002E4B2361C845376041D005AB019304AB22
:103A0000A8EB090248460093414603ABFFF7BCFF11
:103A1000DDE90313059AA7605FEAD20C4FF00100BD
:103A200008BF4FF0200CA3EB0803B3FBFCF300FA34
:103A300003F3013BB2FA82F25FFA83FEC2F11E0287
:103A400008F1FF335B1AA9EB0109B3FBFCF3520049
:103A50000344B9FBFCFC00FA0CF00EFA03F3013846
:103A600002F03E02034342F0407203F0FF0342F0D3
:103A7000011242EA03220235E16022613560BFF3A0
:103A80004F8FBFF36F8F0A4A05236360536A43F475
:103A900080335362BFF34F8FBFF36F8F07B0BDE822
:103AA000F08300BF341C002090ED00E039000113CA
:103AB00000ED00E0C4130020C4130020F0B5002581
:103AC00087B004460E46CDE903551146FFF74AFF7D
:103AD00005AB019304AB0A460093314603ABFFF7F5
:103AE00053FF049B059A039FD00803F1FF3108BFE1
:103AF0002020891B01236FEA070C0144B1FBF0F180
:103B000003FA01F101396444C9B266440444B6FBC6
:103B1000F0F6B4FBF0F08340013BB140194301F0F3
:103B2000FF03FF2B24D0B2FA82F11248124CC1F1EC
:103B30001E01490040EA032301F03E0122681943B7
:103B40000E4B9A600132DF6019612260BFF34F8F24
:103B5000BFF36F8F05225A60094A536A43F48033DA
:103B60005362BFF34F8FBFF36F8F284607B0F0BD8E
:103B70002820FBE701000113341C002090ED00E039
:103B800000ED00E0BFF34F8F0549064BCA6802F411
:103B9000E0621343CB60BFF34F8F00BFFDE700BF70
:103BA00000ED00E00400FA0508B5FFF7EBFF08BDE3
:103BB000104A4161136830B51546ABB91060836097
:103BC00011E0091B9C6841611A467CB123465C697F
:103BD0008C42F6D9002CF4D052B19060836013B1BE
:103BE0005A69511A596130BD0022F0E72346F4E7C3
:103BF0002860F3E7501C002010B500F06DFA094B67
:103C0000094A196831B11368C41A4B69A34203D336
:103C10001B1B4B61106003E0C01A002310604B6156
:103C200010BD00BF501C00203C1C002038B50F4DBB
:103C30002B685C690E4B1B6802201C4400F07AFA6A
:103C4000204600F04FFA0B492A6800230B70D088F9
:103C5000800702D501230B7038BD9268002AFBD083
:103C600050690344012BF2D9F6E700BF501C002035
:103C70003C1C0020441C002070B59DF814500571B8
:103C8000002516468560049ABDF81850C580044684
:103C90000260C0E903360D4629B961610BB11146D6
:103CA000984796B13546FEF7B2FD0646FFF7A4FFEA
:103CB00029462046FFF77CFF054B1B68A34201D134
:103CC000FFF7B4FF3046FEF7A8FD002070BD00BF2F
:103CD000501C00200C4A136800217BB183420AD19A
:103CE000836879B18B6083681BB15A6941690A4462
:103CF0005A610020704719469B68EEE70028EFD014
:103D0000022070471360EEE7501C002070B5154E7E
:103D1000FEF77DFD34780546FCB9134B1C60134B50
:103D20001C60134B1C8000F095F9012000F002FA92
:103D300000F04EFA0F4B0246186020B92846FEF7F5
:103D40006CFD232070BD23460B4840F2E7313FF065
:103D50008DFA0A4B1860012333702846FEF75DFD8B
:103D60000020EFE7381C0020501C00203C1C0020E5
:103D7000461C00204C1C002018FCFFFF401C0020AB
:103D80002DE9F0410546F8B1FEF741FD0F4F06461B
:103D9000FFF732FF2846D7F80080FFF79BFF044665
:103DA00028B13046FEF739FD2046BDE8F081A84530
:103DB0003B6803D123B1FFF739FFF2E7002BF0D1C5
:103DC000022000F0C5F9ECE72224EDE7501C0020AA
:103DD00038B50C46054698B191B100230B70FEF73B
:103DE00016FD084B1B6801210BB122781AB1FEF7B2
:103DF00014FD002038BD9D420CBF21709B68F3E785
:103E00002220F7E7501C0020F0B587B01F460023A2
:103E10000D4616468DF817300446A0B10DF1170176
:103E2000FFF7D6FF9DF817207AB9BDF8343002931A
:103E30009DF830302946CDE9007320463346FFF720
:103E40001BFF07B0F0BD2220FBE70320F9E70000CD
:103E500070B5FEF7DCFC064600F03EF9094B1C8805
:103E600005460120A4B200F08BF918B100F034F936
:103E7000013405463046FEF7D0FC002242EA050038
:103E8000214670BD461C00200A4B1B68834210B5BA
:103E90000C460CD3084B19684FF47A720023A0FB30
:103EA00001013FF0E3F901302060002010BD212026
:103EB000FCE700BF401C00204C1C0020000000005C
:103EC000F8B516461BA3D3E900238B4208BF8242F4
:103ED0002AD3174B1A684FF47A73A0FB034503FBF0
:103EE0000155C2B1531E13EA020014D1B2FA82F294
:103EF000C2F11F02C2F12007A2F1200124FA02F34D
:103F000005FA07F73B4325FA01F10B4325FA02F2C4
:103F1000C6E90032F8BD0023204629463FF0A6F945
:103F2000C6E900010020F5E72120F3E7AFF30080A8
:103F30004C1C0020EFA7C64B37894100C2072DE972
:103F4000F84F04460BD53F4A138801339BB21380C8
:103F5000FFF752FE3C4B1B680BB1FFF767FEA30750
:103F60006DD53A4F00F0B8F83D688046451BFEF726
:103F70004EFC002683463246B246334B1C6814B1D1
:103F80006369AB4214D9012E314B51D1D288022A38
:103F90004ED11E70002C4ED06369C7F800805D1BA7
:103FA0006561FFF743FE5846BDE8F84FFEF735BCA4
:103FB000C7F8008023462A465969914209D81879E2
:103FC00094F804C0844588BF1C469B68521A002B95
:103FD000F2D15846FEF721FCD4F814B0C4F814A06E
:103FE000FEF715FC81462046FFF774FE4846FEF7B3
:103FF00014FC23694BB1FEF70AFC21698146204677
:10400000FFF7D6FD4846FEF708FCE36813B12168C8
:104010002046984700F060F8D844A5EB0805814693
:104020000544FEF7F4FB013683462246C846A4E762
:1040300000221A70AEE7022000F08AF8B3E7BDE86C
:10404000F88F00BF461C0020501C00203C1C0020A4
:10405000481C002010B51C4B86B05968186803AA8C
:1040600003C2197A53F8090F117001909A88174802
:104070009B79ADF8082001218DF80A300024FDF766
:1040800095FF03A88DF80C408DF81040FFF7E4F978
:1040900001A901208DF80440FFF7BEF90C4A536ACC
:1040A00023F4FF6323F00703536240F2FF731362AC
:1040B00001209460FFF7CAF9064B4FF08042C3F825
:1040C00080211A6006B010BDBA4D0400A00914008A
:1040D0000020044000E100E0014B9868704700BFF9
:1040E00000200440114A9368516D9269520704D42C
:1040F000CA1A022A01D899420DD1C21A012A98BFC0
:10410000981C0A4BB0F1FF3F28BF013058655A6A2E
:1041100042F004025A62064A137833B103490B6D28
:1041200043F002030B650023137070470020044026
:10413000721100208207054A00F00103516A48BF4E
:1041400043F004030B435362704700BF0020044058
:10415000830700F0010209D5074B012119700749B7
:104160000B6D23F0030342F004020B6503494B6A15
:1041700023EA02034B6270477211002000200440C2
:10418000064B01289B6904D0022805D1C3F38000A7
:10419000704703F001007047002070470020044082
:1041A00010B5FEF734FB094A93690446590703F03A
:1041B000010003F0070348BF40F002001362FFF75D
:1041C000BDFE2046BDE81040FEF727BB002004409E
:1041D0000148FEF737B800BFA009140008B5FCF786
:1041E000C5F8FCF711F9FCF711F9FCF718F9BDE86F
:1041F0000840FCF71DB908B5FCF722F9FCF721F9D6
:10420000FCF720F9BDE80840FCF71DB901F06CB9D6
:104210001822002101483FF09ABA00BF5C1C002020
:1042200007B5FFF715FE6A46FFF74AFE28B1054BB2
:10423000054A06484F213FF099F9009803B05DF810
:1042400004FB00BFF94D0400CA4D0400104E0400E9
:1042500030B5174885B00C461546FFF791FD154B54
:104260002C441C60FFF7DCFF134B201A00284FF092
:1042700001041C7003DC01F037F905B030BD03A95F
:10428000FFF702FE034628B10C4B0D4A6C210D4886
:104290003FF06CF9CDE900040B4A03990448FFF79D
:1042A000B3FD0028E9D0054B054A7021EFE700BFB8
:1042B0005C1C0020541C0020581C0020F94D0400F8
:1042C000E14D0400104E04000D42000070B5094D90
:1042D0002B7806466BB1084B1C68FFF7A1FF201A2C
:1042E000002806DC00232B703046BDE8704019F032
:1042F00019BD70BD581C0020541C002008B503488F
:10430000FFF73EFD024B00221A7008BD5C1C002026
:10431000581C0020FFF7F2BF20B1034B98420CBF9E
:1043200017200120704700BF0BE000F02DE9F74394
:104330000E46174632B329B30002DFF84C8040F432
:104340000034002545EA040901AB6A464946D8F81D
:10435000000037F097FEFFF7DFFF17280BD13B4631
:1043600032464946D8F8000037F0F2FD03B0BDE808
:10437000F043FFF7D1BF10B901350B2DE2D103B0E7
:10438000BDE8F0830720FAE748110020024B1968C6
:10439000024B186837F00ABD4C110020481100206C
:1043A0002DE9F04F8BB00902CDE9023241F400361D
:1043B0000024A146172546F00A072D4800973346EA
:1043C000042206A9006837F0A3FE6FF0030306A9D4
:1043D0008346021903FB0413944201D1002333E006
:1043E000039953F824608C4240D1214805AB04AABC
:1043F0003146006837F046FEFFF78EFF054610BBDA
:10440000059B029A1FFA83F9EAB1149ADAB1484679
:104410003FF048F90246824615484B46314600684F
:1044200037F0E2FDFFF778FF054640B9149B02988C
:104430001A8851464A4588BF4A463FF064F95046BB
:104440003FF038F95DB90123BBF1030F05D90A2C00
:1044500006F1010601DC002BAFD0149B13B1149BB5
:10446000A3F8009028460BB0BDE8F08F0134B3E705
:1044700048110020084611461A46FFF757BF0000B2
:104480002DE9F04F090241F40035DFF894A08BB01C
:1044900090460024172745F00A06214800962B462F
:1044A000042206A9006837F033FE031903936FF066
:1044B000030906AB834609FB0439039B9C4201D1E7
:1044C00000231EE0444559F8245002D0B8F1FF3FC4
:1044D00024D105AB04AA2946DAF8000037F0D2FD52
:1044E000FFF71AFF074640B92946DAF8000037F00F
:1044F0001FFEFFF711FF074660B9B8F1FF3F0DD06F
:104500000123BBF1030F05D90A2C05F1010501DCDC
:10451000002BC2D038460BB0BDE8F08F0134CCE799
:104520004811002070B515464FF0FF320C461E466C
:10453000FFF7A6FF08B1172806D1324629462046C4
:10454000BDE87040FFF7F2BE70BD10B50024A1B207
:104550004FF0FF3200200134FFF792FF082CF6D114
:1045600010BD000008B5FEF72BFF034B1860BDE837
:104570000840FEF71FBF00BF741C0020BFF34F8F21
:104580000549064BCA6802F4E0621343CB60BFF3EF
:104590004F8F00BFFDE700BF00ED00E00400FA050B
:1045A000054B1B7803F0FF0023B1044B1B68187800
:1045B000C0F34010704700BFC0200020C82000207A
:1045C000064B074A1B6812781B7802F0FF0022B1E5
:1045D00003F00700C31E584258417047C82000200E
:1045E000C0200020054B1A79824205D85A798242B0
:1045F0002CBF18460020704700207047141E002072
:1046000038B50C468A88896805463FF07CF8E16831
:1046100041B1A0886288121A92B22844BDE838409D
:104620003FF071B838BD000037B50546154B164C44
:10463000296818689B880090ADF80430206861B143
:10464000002238F05BFB2B7983420ED00F4B104ACF
:104650004FF4F0710F483EF089FF38F041FD20B172
:104660000D4B0B4A40F2EB11F4E76946206838F035
:10467000A0FB20B1084B064A40F2EF11EAE703B075
:1046800030BD00BF904E040004700020685104004B
:10469000FA4E0400915104000F52040038B504464C
:1046A0000D46FEF7B4F8064B1A882DB114431C8052
:1046B000BDE83840FEF7B1B822EA0404F7E700BFCE
:1046C0007A1C00201E4B1F491A68096830B5521A1F
:1046D000102A87B01D4606D11B4B1C4A40F22B51B5
:1046E0001B483EF043FF01A91C6838F05DFCBDF893
:1046F0000630032B04F00F0404D8164B134A40F283
:104700003151EDE7182B0AD9BDF808201823172AD4
:10471000ADF8063082BFADF80830002304931923AA
:1047200063430D48BDF80620C2540133184401A963
:10473000FFF766FF2B6801332B6007B030BD00BF69
:10474000101E00200C1E00202E520400D94F040021
:1047500091510400485204007C1C002000210420D8
:10476000FFF79CBF10B5FFF71BFF30B9104B114A84
:1047700040F2CF7110483EF0F9FE104B1B881B072A
:1047800004D40F4B0B4A4FF4FA61F3E70D4B0E22A2
:104790001A7000240C4B214608201C70FFF77EFF86
:1047A0000A4B186838F014F8094B1C7010BD00BF94
:1047B0005050040017500400915104007A1C00204E
:1047C00062500400C1200020C0200020047000209E
:1047D000781C00202DE9F0431B4C2378884685B0D7
:1047E000914603F0FF0123BB184B194F18700122AB
:1047F0003868227037F0E7FF5FFA88F0FFF7F2FEC3
:104800000646C0B1134D2B68834202D0FFF70CFF60
:104810002E60FF238DF804300F4B3868CDE9023944
:104820004A4601AB414638F00BF830B905B0BDE857
:10483000F0830520FAE70720F8E7084B7F221A707B
:10484000022323700120F1E716200020142000200D
:10485000047000201020002020A107001520002057
:1048600008B50E4B1B889B0713D501280C4B11D1A3
:104870000F22002120201A70FFF710FF00210220D4
:10488000FFF70CFF074B186837F0A2FF064B00221A
:104890001A7008BD0B221A70F0E700BF7A1C0020C6
:1048A000C120002004700020C02000202DE9F04F1E
:1048B00092469B4602F40012002313438BB0064637
:1048C0001AD0A74B1B78002B00F0E88005A938F020
:1048D0003AFC002840F0E9809DF81C30032B00F0E2
:1048E000D6809DF81C30022B06D1BDF814000FF0C5
:1048F000B7FC002880F2D1800AF4000200231343A1
:1049000000F0E480974B1B889D070DD50021022005
:10491000FFF7C4FEFFF744FE0746002800F0CD80F5
:1049200001210820FFF7BAFE0AF008020023134312
:1049300060D0304638F043FB8B4F014605AA3868FB
:1049400038F02EFB0146002854D09DF81430072B78
:1049500050D101AA386838F02AFB00284AD1BDF8A6
:104960001610079A4B1C10789BB2984242D1CB1E6E
:104970007B2B3FD8BDF81830002B3BD00139013BD1
:10498000ADF816109DF80D1002F1010C9BB2CDF898
:104990001CC0ADF81830002900F0B180052829D1DD
:1049A000517801F00701022924D1022B00F2A580E1
:1049B000089AFAB1C3F10203D25CFFF7F1FD98B196
:1049C0006A4B1B689B7893420ED100210820FFF7A9
:1049D00065FE079B197801F01001FFF7F1FD18B192
:1049E00011B1634B01221A70FFF7EAFD10B9386864
:1049F00037F0EEFE0AF08072002313430CD05C4FB8
:104A000000210420FFF74AFE3B782BB1564B186873
:104A100037F0DEFE00233B700AF088420023134388
:104A200001D0FFF79BFE0AF080520023134301D010
:104A3000FFF794FE0AF002020023134305D0494B0E
:104A40001B881C0701D5FFF78DFE00220BF0200309
:104A500013430AD0434F3A88100701D5FFF782FE6F
:104A60003B88590701D5FFF779FE00220BF0800340
:104A7000134300F0A480304637F080FE0B285AD153
:104A80003C4B3D4A40F2ED713C483EF06FFD05A8BD
:104A90000FF040FC0028FFF624AF304638F051FB01
:104AA00018B93046FFF70EFE26E702283FF424AF80
:104AB000334B344A40F23171E6E72B4B186837F03C
:104AC00087FE314B1F70314B1F702DE700220BF01A
:104AD0000103134303D00120FFF7C2FE24E70AF0CD
:104AE00000620023134301D00220F5E70AF00852C8
:104AF000002313433FF418AFF6E7D2785DE7244B69
:104B00001B7813B905283FF475AF537813F02008CC
:104B100004D001210420FFF7C1FD6BE7DFF85090BE
:104B200099F80030002B3FF465AF386837F050FE3D
:104B300089F800805EE7031FDBB2022B33D903281C
:104B40002CD1124B1B7873BB124B1B78012B36D127
:104B5000114B7F221A700F4B02221A702FE000BFF8
:104B6000172000207A1C002004700020C82000209C
:104B7000781C0020B04E04002A500400915104001B
:104B80000F520400FC4F0400C1200020C020002070
:104B900018200020162000201520002002283ED1D9
:104BA000204B1B785BB1204F3A88520701D5FFF7A5
:104BB000D5FD3B889B0702D50120FFF751FE00225F
:104BC0000BF4807313430AD000221146304638F0AC
:104BD0007DF920B1154B164A4FF40A6154E70AF0EB
:104BE0000104002554EA050314D0304638F007FAD2
:104BF0000446304637F0ECFD14F5007F1CBF04235B
:104C000094FBF3F40B4B14BF64B27F241C700A4B6B
:104C100002221A7000F068FC0BB0BDE8F08F0A2881
:104C200095E700BFC02000207A1C00200F5204002E
:104C30004150040015200020162000200000000034
:104C4000534BF7B5198811F0010140F09980514C90
:104C5000514B524FA160C4E9003141F60B2339603A
:104C6000BB80204637F070FD064630B94C4B4D4AAC
:104C700040F2B7114C483EF079FC4FF0011138F08A
:104C800062F920B1494B474A40F2BF11F2E7484967
:104C9000304638F0F1F9024620B1444B414A4FF416
:104CA000E171E7E7802304F5BA71304638F058F92E
:104CB000802804D03F4B3B4A40F2D311DAE732A3BD
:104CC000D3E900233C4DCDE9002330464FF0FF32BD
:104CD0004FF0FF332E6038F04FF820B1334B374A96
:104CE00040F28111C6E73846FFF79EFC01210846D5
:104CF000FFF7D4FC0121286837F054FD044620B1A9
:104D00002A4B2F4A4FF41271B4E72E4B2E4A98804B
:104D10001A602E4B2E4A98800B201A60FFF762FC17
:104D20002C4B186020B92C4B254A40F25621A1E7A4
:104D300021464FF4C87229483EF009FD284B1C60FB
:104D4000284B1C60FEF756FD2146286838F04DF8C8
:104D500020B1164B244A4FF4FC718BE70822114610
:104D6000286838F013F820B1204B154A40F2612131
:104D700080E71F4A002313701E4A13701E4A1370E7
:104D800003B0F0BDAFF300800B00A07F1101000065
:104D90007A1C00201C1E0020AD480000141E0020BC
:104DA00088500400EC4E0400915104000F5204009E
:104DB0007C5204009750040004700020DF4E040071
:104DC000234F04002020002040200020C820002085
:104DD000E820002010200020C95004007C1C002086
:104DE000101E00200C1E00200E4F0400E450040092
:104DF00016200020C1200020C02000202DE91748E7
:104E00000A4B186C5C6C4FF0000B4BEA0002234617
:104E1000CDE900234B1E02AA073112F8010D03F859
:104E2000010F8B42F9D103B0BDE81088B081E00FCB
:104E300010B508460C460FF00DFA074B002221462C
:104E4000186838F053F930B1044B054A054840F270
:104E5000F3213EF08BFB10BD047000200F520400C4
:104E6000324F04009151040008B5074B0022186826
:104E700038F04CF930B1054B054A06484FF4427101
:104E80003EF074FB08BD00BF047000200F52040008
:104E9000464F04009151040008B5074B00221868E2
:104EA00038F02CF930B1054B054A06484FF44571EE
:104EB0003EF05CFB08BD00BF047000200F520400F0
:104EC000644F040091510400034B1A780AB901227F
:104ED0001A700020704700BFBF20002038B50A4C70
:104EE0002378032B0DD063B1084D012200212868DF
:104EF00037F069FC286837F06BFC01232370002031
:104F000038BD0D20FCE700BFBF200020047000204A
:104F10002DE9FF41184F3A7888463AB30846FFF723
:104F200061FB044620B3154E154D3368834208D00B
:104F300001220021286837F046FC2046FFF774FB69
:104F400034600023CDE90133039301AAFF234146D6
:104F500028688DF8043037F063FC58B902233B70A1
:104F6000084B83F8068004B0BDE8F0810D20FAE715
:104F70000720F8E70120F6E7BF20002010200020DE
:104F800004700020202000202DE9F0412D4F3B88A7
:104F90009B078AB006D42C4B2C4A40F296312C4801
:104FA0003EF0E4FADFF8BC80D8F8003023B9294B92
:104FB000264A40F29731F2E7274C9B88274D94E828
:104FC000070004AE86E807000AA93A8801F8193DEF
:104FD00001231A46286837F0BFFF9DF80F20D8F844
:104FE000001028680968023A002392B20C3437F0A6
:104FF000B3FF94E8070007AB83E80700D8F8000088
:1050000039880268127811F0200FC2F340128179BA
:1050100014D0007E8DF81200114800788DF813002E
:1050200000932868334637F0EBFB20B10220FFF7EE
:1050300017FC00F059FA0AB0BDE8F081286837F093
:10504000CFFBF2E77A1C002098520400934F040033
:1050500091510400BE520400984E040004700020D8
:1050600073110020682100202DE9F843294E337880
:1050700080460D46002B46D0032B44D08879FFF79D
:10508000B1FA0446002840D0234F3B68834209D040
:10509000224B01221868002137F095FB2046FFF7CC
:1050A000C3FA3C601E4B1A7802F0FF0432B11D4B6C
:1050B0001D4A1E4840F27F313EF058FA03223270FA
:1050C0001B4EA97E347001271F701A4BC1F340019B
:1050D00020201D60FFF7E2FAFDF799FB3946814673
:1050E0000220FFF7DBFAFFF74FFF4846FDF795FB7D
:1050F000337803F0FF0653B94046294624F058FDA3
:105100003046BDE8F8830D20FBE70720F9E720468D
:10511000F7E700BFBF20002010200020047000200F
:10512000C0200020645204007F4F0400915104000D
:10513000C12000206821002000487047C8200020BE
:1051400070B5114B102299790020FFF743FBC8B9C5
:1051500037F059FF0D4D06462C462B78012B05D113
:1051600037F051FF801BB0F5967FF6D32378022BE2
:1051700004BF074B18784FF000030CBF40B27F20EC
:10518000237070BD7F20FCE7202000201620002027
:10519000152000200B207047014B1878704700BF86
:1051A0001820002008B5074B1970074B186837F016
:1051B000B5FF30B1054B064A064840F264413EF067
:1051C000D5F908BD18200020047000200F520400FB
:1051D000A34F040091510400014B1970704700BFA8
:1051E0001720002010B50C4649B1064B186837F05F
:1051F00021FE0A23B0FBF3F02070002010BD072031
:10520000FCE700BF0470002008B5084B01EB8101EA
:105210004900186837F0E9FD30B1054B054A0648EA
:1052200040F287413EF0A2F908BD00BF04700020A3
:105230000F520400BD4F04009151040021B1034BF3
:105240001B780B70002070470720704773110020F7
:10525000014B002019707047731100206FF063003C
:1052600070474FF47A735A430120FFF7B3BA000036
:105270002DE9F04F7C4D8DB0074607AA0121286823
:1052800037F08EFE064600285AD09DF81C30072BBA
:1052900056D1014603AA286837F089FE81460028C6
:1052A0004AD1BDF81E80099A08F1010392F800A0C6
:1052B0009BB29A4540D1A8F103037B2B3CD8BDF8A3
:1052C0002030002B38D0DFF8C8B1013B0132ADF8F7
:1052D000203007A908F1FF33DBF80000ADF81E30DD
:1052E0000992FFF78DF93146286837F06AFE9DF87C
:1052F0001530ABF804A000285C4608BF0026002B40
:1053000050D0BAF1050F16D1DBF80020137803F066
:105310000703022B0FD1554B927883F80090544B22
:105320001B689B789A42534B16BF0E2283F800905D
:105330001A7000F0D9F81EB13146286837F041FEE6
:105340004D4A1378032B18D1484B1B78ABB9494B06
:1053500019780221117046490A68127812F0200F5C
:105360001A4602D0187800287BD0414913780022D1
:10537000384624F025FC00F0B7F8404B1B78012B91
:105380000DD13F4B1A78022A09D100221A703D4BE9
:105390001978384649B224F020FC00F0A5F80DB089
:1053A000BDE8F08F384B1B7813B9BAF1050FC2D0A6
:1053B000364B00221A709DF8162062759DF8172052
:1053C000A2759DF812209B46002AB4D008F1020372
:1053D00003A92868ADF8103037F0EDFD0028AAD1F8
:1053E000039BD4F80090C4E9023099F8003003F030
:1053F0000703032B0BD00020E37D9BF800202449FA
:1054000060F300033846E37524F0CAFB91E7DFF848
:105410008C80A3880193C2461E4BD8F800101A68EE
:105420008A42E8D0192001F00F011B4B41435A1862
:1054300050789DF80420904211D15A5C881C013AA2
:10544000494618443EF050F9B0FA80F04009DAF8C5
:1054500000200132CAF800200028DDD0CCE700206F
:10546000F5E71B780A4A83E704700020C02000207B
:10547000C8200020C1200020BF20002014200020D0
:1054800016200020152000201820002019200020C0
:1054900020200020101E00207C1C00200C1E00205C
:1054A00008B50749074815F053FB37F047F9FFF7F0
:1054B000C7FBFEF7ADFEBDE80840FFF753B800BFDD
:1054C000F9560000D956000010B5064B0446186086
:1054D00000F09AF82046FFF7CBFE2046BDE81040CA
:1054E000FEF7F4BE0870002070470000024B002257
:1054F0001A80FFF7F9BF00BFF82200202DE9F04124
:10550000174CDFF864801D46164698F80010B4F872
:105510008020B4F882305B1A2B4403F07F0393425F
:10552000074613D0B4F882006A1A204431443EF092
:10553000EAF8B4F8823098F800209B1A2B4403F064
:105540007F03A4F88230002388F800302A463146D1
:105550003846044BFBF7D2FEBDE8F041FFF7C4BF6D
:105560006E220020FD5400006C2100200C207047AA
:10557000FFF7BABF70B5104B104E114D1149286896
:105580000024A3F880408022A3F882403346FBF732
:10559000B5FE334680220C492868FBF7AFFE0B4B63
:1055A0004FF48052C3F880211A60094AD36C43F04B
:1055B0000403D364204670BD6E220020FD54000019
:1055C000301000206D210020ED21002000E100E0DE
:1055D00000000140084B10B51C685CB91860074B0F
:1055E0001980014606481A880068064BFCF70AFC39
:1055F000204610BD0520FCE7F4220020F822002000
:1056000030100020ED5400007FB5FDF700F906468C
:105610002848294D0068294C03AB02AA01A9FBF7D1
:1056200049FD2B78029A934212D2B4F88200019974
:10563000D21A194420443EF066F8B4F88230029A37
:1056400029782A7013445B1A03F07F03A4F8823090
:105650003046FDF7E2F8B4F88250B4F88030ADB2CD
:105660009D420CD2B4F88000B4F88010C1F18001E2
:1056700089B2204414F068FE0023A4F88030B4F806
:1056800080309D420AD0B4F88000B4F88010691AC6
:1056900089B2204414F058FEA4F88050084A1368D8
:1056A00033B1084B1B889BB213B9136014F058FE3A
:1056B00004B070BD301000206C2100206E2200204C
:1056C000F4220020F822002000221146014811F0A7
:1056D00047BA00BFFC22002070B504460E46FDF715
:1056E0008FF83146054620463DF05EFF04462846C9
:1056F000FDF78AF8204670BD38B50546FDF780F8FD
:10570000044628463DF0D6FF2046BDE83840FDF768
:105710007BB82DE9F04144681F46A36805460E4654
:10572000904633B110210120FFF7D6FFE06038B179
:105730000446C4E90178266000206C60BDE8F08171
:105740006FF06900FAE7036830B5CD1A002D02DC6E
:105750006FF05F0030BD1C7814F0800F0AD15C1C24
:1057600004601B7813600368C91A13688B42EFD872
:105770000020EFE704F07F04013C032C27D8DFE88A
:1057800004F00209121E012DE2D05C78146002338D
:105790000360E8E7022DDBDDB3F8014064BAA4B290
:1057A00014600333F4E7032DD2DD9C785D78240286
:1057B00044EA0544DD782C4314600433E8E7042D03
:1057C000C6DDD3F8014024BA14600533E0E76FF07A
:1057D0006300BFE770B404680E1B002E07DD267857
:1057E0009E4208D10134046070BCFFF7ACBF6FF07B
:1057F0005F0070BC70476FF06100FAE737B51D4677
:10580000134601AA0446FFF7E5FF18B9019B1BB92F
:105810006FF0630003B030BD236893F90030002BB4
:10582000F6DB019B3BB122681178A1B1042BEFD8C4
:1058300001D10B06ECD400232B60019B5A1E019270
:10584000002BE7D02368296813F8012B42EA0122D4
:105850002A602360F1E70132013B22600193E0E717
:1058600037B50123154601AA0446FFF7B3FF50B927
:10587000019B012B09D1236813F8012B003218BFBB
:1058800001222A60236003B030BD6FF06300FAE7A5
:1058900013460222FFF7B2BF37B50223154601AA0D
:1058A0000446FFF797FF40B9019A2168284600F0A7
:1058B0002AFE2368019A1344236003B030BD70B5FB
:1058C000032304460E461546FFF784FF98B9136874
:1058D00093B1013B1360226812782A71072A0ED80F
:1058E000226801322260AA6022681344B342236016
:1058F00018BF6FF0650070BD6FF05F00FBE76FF0E1
:105900006300F8E72DE9F74F9046994601AA302346
:1059100004460E469DF830A09DF834B0FFF75AFFBC
:105920000546F8B92368019A13449E4217D06FF0D8
:10593000650517E05A1C22601F7807EA08034B45EB
:1059400021D101AA31462046FFF7FDFEC8B907EA7A
:105950000A035B450AD02368019A13442360236835
:10596000B342E7D3284603B0BDE8F08F0E9B002B6F
:10597000F1D03946019B2268DDE90E70B847002856
:10598000E9D00546EEE76FF06105EBE738B5032394
:105990000446FFF71FFF18B9136813B96FF06700CB
:1059A00038BD013B136023681A78002AF6D1013311
:1059B0002360F5E770B586B0CDE9043205460E46A2
:1059C0001046002110221C463DF0C1FE04AB03939B
:1059D000064B02930023CDE90033FF22E3B23146A8
:1059E0002846FFF78FFF06B070BD00BF13570000B9
:1059F0002DE9F74390461F4601AA30230446894605
:105A0000FFF7E8FE054600BB2668A9EB0609B9F1D9
:105A1000000F37DD4246337842F8043B019B1E44B9
:105A2000314606232046FFF7D5FE054668B92368B0
:105A3000C8F808302168D8F804208B18B3422360D6
:105A400007D10C21384606F043FB284603B0BDE8D9
:105A5000F083895C3A46013342F8041B20462360F8
:105A60003146FFF770FE05460028EED12368BB6083
:105A700023687A681344B34223600CBF05466FF075
:105A80006505E2E76FF05F05DFE703687F2AA3EBB8
:105A9000010107D8002969DD591E016003F8012CB6
:105AA00001207047FF2A0DD801295FDD591E0160D2
:105AB00003F8012C03685A1E0260812203F8012CAE
:105AC00002207047B2F5803F13D202294EDD591EE5
:105AD000016003F8012C0368120A591E016003F8E3
